:020000020000FC
:0200000021C01D
:040010000C945B00F1
:100040000C947300F89408E00EBF0FEF0DBF3F064D
:100050005B4F666D7D077F67777C395E797100E85D
:100060000093610004E0009361000E946E0001E0D3
:1000700000936E00EEE4F0E0149174916FEF162798
:1000800076271BB902E00093680003E000936C0040
:1000900000E007B93A9A3B9A0FEF04B90AB9409ABF
:1000A000419A429A439820E040E050E080E090E09E
:1000B00078940C945900309B0E946200319B0E94FE
:1000C0006800189523950E9498002F7025B908950F
:1000D0002A950E9498002F7025B9089503E005BD68
:1000E00004E606BD0895329A339A04E606BD4395A8
:1000F0004436B9F44427319653955A3091F4552734
:10010000EEE4F0E08395863019F488270C948C0097
:10011000939531968917E1F7749176279927EEE444
:10012000F0E014911627429B7BB9439B1BB91895AD
:1001300030E033953030E9F730E033953030E9F78F
:1001400030E033953030E9F730E033953030E9F77F
:02015000089510
:00000001FF
